{
  "_format": "hh-sol-artifact-1",
  "contractName": "VolcanoToken",
  "sourceName": "contracts/VolcanoToken.sol",
  "abi": [
    {
      "inputs": [
        {
          "internalType": "string",
          "name": "name",
          "type": "string"
        },
        {
          "internalType": "string",
          "name": "symbol",
          "type": "string"
        }
      ],
      "stateMutability": "nonpayable",
      "type": "constructor"
    },
    {
      "anonymous": false,
      "inputs": [
        {
          "indexed": true,
          "internalType": "address",
          "name": "owner",
          "type": "address"
        },
        {
          "indexed": true,
          "internalType": "address",
          "name": "approved",
          "type": "address"
        },
        {
          "indexed": true,
          "internalType": "uint256",
          "name": "tokenId",
          "type": "uint256"
        }
      ],
      "name": "Approval",
      "type": "event"
    },
    {
      "anonymous": false,
      "inputs": [
        {
          "indexed": true,
          "internalType": "address",
          "name": "owner",
          "type": "address"
        },
        {
          "indexed": true,
          "internalType": "address",
          "name": "operator",
          "type": "address"
        },
        {
          "indexed": false,
          "internalType": "bool",
          "name": "approved",
          "type": "bool"
        }
      ],
      "name": "ApprovalForAll",
      "type": "event"
    },
    {
      "anonymous": false,
      "inputs": [
        {
          "indexed": true,
          "internalType": "address",
          "name": "previousOwner",
          "type": "address"
        },
        {
          "indexed": true,
          "internalType": "address",
          "name": "newOwner",
          "type": "address"
        }
      ],
      "name": "OwnershipTransferred",
      "type": "event"
    },
    {
      "anonymous": false,
      "inputs": [
        {
          "indexed": true,
          "internalType": "address",
          "name": "from",
          "type": "address"
        },
        {
          "indexed": true,
          "internalType": "address",
          "name": "to",
          "type": "address"
        },
        {
          "indexed": true,
          "internalType": "uint256",
          "name": "tokenId",
          "type": "uint256"
        }
      ],
      "name": "Transfer",
      "type": "event"
    },
    {
      "inputs": [
        {
          "internalType": "address",
          "name": "to",
          "type": "address"
        },
        {
          "internalType": "uint256",
          "name": "tokenId",
          "type": "uint256"
        }
      ],
      "name": "approve",
      "outputs": [],
      "stateMutability": "nonpayable",
      "type": "function"
    },
    {
      "inputs": [
        {
          "internalType": "address",
          "name": "owner",
          "type": "address"
        }
      ],
      "name": "balanceOf",
      "outputs": [
        {
          "internalType": "uint256",
          "name": "",
          "type": "uint256"
        }
      ],
      "stateMutability": "view",
      "type": "function"
    },
    {
      "inputs": [
        {
          "internalType": "uint256",
          "name": "_tokenID",
          "type": "uint256"
        }
      ],
      "name": "burn",
      "outputs": [],
      "stateMutability": "nonpayable",
      "type": "function"
    },
    {
      "inputs": [
        {
          "internalType": "uint256",
          "name": "tokenId",
          "type": "uint256"
        }
      ],
      "name": "getApproved",
      "outputs": [
        {
          "internalType": "address",
          "name": "",
          "type": "address"
        }
      ],
      "stateMutability": "view",
      "type": "function"
    },
    {
      "inputs": [
        {
          "internalType": "address",
          "name": "owner",
          "type": "address"
        },
        {
          "internalType": "address",
          "name": "operator",
          "type": "address"
        }
      ],
      "name": "isApprovedForAll",
      "outputs": [
        {
          "internalType": "bool",
          "name": "",
          "type": "bool"
        }
      ],
      "stateMutability": "view",
      "type": "function"
    },
    {
      "inputs": [
        {
          "internalType": "string",
          "name": "_tokenURI",
          "type": "string"
        }
      ],
      "name": "mint",
      "outputs": [],
      "stateMutability": "nonpayable",
      "type": "function"
    },
    {
      "inputs": [],
      "name": "name",
      "outputs": [
        {
          "internalType": "string",
          "name": "",
          "type": "string"
        }
      ],
      "stateMutability": "view",
      "type": "function"
    },
    {
      "inputs": [],
      "name": "owner",
      "outputs": [
        {
          "internalType": "address",
          "name": "",
          "type": "address"
        }
      ],
      "stateMutability": "view",
      "type": "function"
    },
    {
      "inputs": [
        {
          "internalType": "uint256",
          "name": "tokenId",
          "type": "uint256"
        }
      ],
      "name": "ownerOf",
      "outputs": [
        {
          "internalType": "address",
          "name": "",
          "type": "address"
        }
      ],
      "stateMutability": "view",
      "type": "function"
    },
    {
      "inputs": [
        {
          "internalType": "address",
          "name": "",
          "type": "address"
        },
        {
          "internalType": "uint256",
          "name": "",
          "type": "uint256"
        }
      ],
      "name": "ownership",
      "outputs": [
        {
          "internalType": "uint256",
          "name": "timestamp",
          "type": "uint256"
        },
        {
          "internalType": "uint256",
          "name": "tokenId",
          "type": "uint256"
        },
        {
          "internalType": "string",
          "name": "tokenURI",
          "type": "string"
        }
      ],
      "stateMutability": "view",
      "type": "function"
    },
    {
      "inputs": [],
      "name": "renounceOwnership",
      "outputs": [],
      "stateMutability": "nonpayable",
      "type": "function"
    },
    {
      "inputs": [
        {
          "internalType": "address",
          "name": "from",
          "type": "address"
        },
        {
          "internalType": "address",
          "name": "to",
          "type": "address"
        },
        {
          "internalType": "uint256",
          "name": "tokenId",
          "type": "uint256"
        }
      ],
      "name": "safeTransferFrom",
      "outputs": [],
      "stateMutability": "nonpayable",
      "type": "function"
    },
    {
      "inputs": [
        {
          "internalType": "address",
          "name": "from",
          "type": "address"
        },
        {
          "internalType": "address",
          "name": "to",
          "type": "address"
        },
        {
          "internalType": "uint256",
          "name": "tokenId",
          "type": "uint256"
        },
        {
          "internalType": "bytes",
          "name": "_data",
          "type": "bytes"
        }
      ],
      "name": "safeTransferFrom",
      "outputs": [],
      "stateMutability": "nonpayable",
      "type": "function"
    },
    {
      "inputs": [
        {
          "internalType": "address",
          "name": "operator",
          "type": "address"
        },
        {
          "internalType": "bool",
          "name": "approved",
          "type": "bool"
        }
      ],
      "name": "setApprovalForAll",
      "outputs": [],
      "stateMutability": "nonpayable",
      "type": "function"
    },
    {
      "inputs": [
        {
          "internalType": "bytes4",
          "name": "interfaceId",
          "type": "bytes4"
        }
      ],
      "name": "supportsInterface",
      "outputs": [
        {
          "internalType": "bool",
          "name": "",
          "type": "bool"
        }
      ],
      "stateMutability": "view",
      "type": "function"
    },
    {
      "inputs": [],
      "name": "symbol",
      "outputs": [
        {
          "internalType": "string",
          "name": "",
          "type": "string"
        }
      ],
      "stateMutability": "view",
      "type": "function"
    },
    {
      "inputs": [],
      "name": "tokenID",
      "outputs": [
        {
          "internalType": "uint256",
          "name": "",
          "type": "uint256"
        }
      ],
      "stateMutability": "view",
      "type": "function"
    },
    {
      "inputs": [
        {
          "internalType": "uint256",
          "name": "tokenId",
          "type": "uint256"
        }
      ],
      "name": "tokenURI",
      "outputs": [
        {
          "internalType": "string",
          "name": "",
          "type": "string"
        }
      ],
      "stateMutability": "view",
      "type": "function"
    },
    {
      "inputs": [
        {
          "internalType": "address",
          "name": "from",
          "type": "address"
        },
        {
          "internalType": "address",
          "name": "to",
          "type": "address"
        },
        {
          "internalType": "uint256",
          "name": "tokenId",
          "type": "uint256"
        }
      ],
      "name": "transferFrom",
      "outputs": [],
      "stateMutability": "nonpayable",
      "type": "function"
    },
    {
      "inputs": [
        {
          "internalType": "address",
          "name": "newOwner",
          "type": "address"
        }
      ],
      "name": "transferOwnership",
      "outputs": [],
      "stateMutability": "nonpayable",
      "type": "function"
    }
  ],
  "bytecode": "0x608060405260006007553480156200001657600080fd5b50604051620037cb380380620037cb83398181016040528101906200003c91906200028a565b818181600090805190602001906200005692919062000168565b5080600190805190602001906200006f92919062000168565b50505062000092620000866200009a60201b60201c565b620000a260201b60201c565b50506200046d565b600033905090565b6000600660009054906101000a900473ffffffffffffffffffffffffffffffffffffffff16905081600660006101000a81548173ffffffffffffffffffffffffffffffffffffffff021916908373ffffffffffffffffffffffffffffffffffffffff1602179055508173ffffffffffffffffffffffffffffffffffffffff168173ffffffffffffffffffffffffffffffffffffffff167f8be0079c531659141344cd1fd0a4f28419497f9722a3daafe3b4186f6b6457e060405160405180910390a35050565b828054620001769062000392565b90600052602060002090601f0160209004810192826200019a5760008555620001e6565b82601f10620001b557805160ff1916838001178555620001e6565b82800160010185558215620001e6579182015b82811115620001e5578251825591602001919060010190620001c8565b5b509050620001f59190620001f9565b5090565b5b8082111562000214576000816000905550600101620001fa565b5090565b60006200022f620002298462000326565b620002fd565b9050828152602081018484840111156200024857600080fd5b620002558482856200035c565b509392505050565b600082601f8301126200026f57600080fd5b81516200028184826020860162000218565b91505092915050565b600080604083850312156200029e57600080fd5b600083015167ffffffffffffffff811115620002b957600080fd5b620002c7858286016200025d565b925050602083015167ffffffffffffffff811115620002e557600080fd5b620002f3858286016200025d565b9150509250929050565b6000620003096200031c565b9050620003178282620003c8565b919050565b6000604051905090565b600067ffffffffffffffff8211156200034457620003436200042d565b5b6200034f826200045c565b9050602081019050919050565b60005b838110156200037c5780820151818401526020810190506200035f565b838111156200038c576000848401525b50505050565b60006002820490506001821680620003ab57607f821691505b60208210811415620003c257620003c1620003fe565b5b50919050565b620003d3826200045c565b810181811067ffffffffffffffff82111715620003f557620003f46200042d565b5b80604052505050565b7f4e487b7100000000000000000000000000000000000000000000000000000000600052602260045260246000fd5b7f4e487b7100000000000000000000000000000000000000000000000000000000600052604160045260246000fd5b6000601f19601f8301169050919050565b61334e806200047d6000396000f3fe608060405234801561001057600080fd5b506004361061012c5760003560e01c80638da5cb5b116100ad578063c87b56dd11610071578063c87b56dd1461031b578063d85d3d271461034b578063e985e9c514610367578063ee9bfc8c14610397578063f2fde38b146103c95761012c565b80638da5cb5b1461028957806395d89b41146102a7578063a22cb465146102c5578063a5c42ef1146102e1578063b88d4fde146102ff5761012c565b806342842e0e116100f457806342842e0e146101e757806342966c68146102035780636352211e1461021f57806370a082311461024f578063715018a61461027f5761012c565b806301ffc9a71461013157806306fdde0314610161578063081812fc1461017f578063095ea7b3146101af57806323b872dd146101cb575b600080fd5b61014b60048036038101906101469190612493565b6103e5565b6040516101589190612885565b60405180910390f35b6101696104c7565b60405161017691906128a0565b60405180910390f35b61019960048036038101906101949190612526565b610559565b6040516101a6919061281e565b60405180910390f35b6101c960048036038101906101c49190612457565b6105de565b005b6101e560048036038101906101e09190612351565b6106f6565b005b61020160048036038101906101fc9190612351565b610756565b005b61021d60048036038101906102189190612526565b610776565b005b61023960048036038101906102349190612526565b610801565b604051610246919061281e565b60405180910390f35b610269600480360381019061026491906122ec565b6108b3565b6040516102769190612ac2565b60405180910390f35b61028761096b565b005b6102916109f3565b60405161029e919061281e565b60405180910390f35b6102af610a1d565b6040516102bc91906128a0565b60405180910390f35b6102df60048036038101906102da919061241b565b610aaf565b005b6102e9610c30565b6040516102f69190612ac2565b60405180910390f35b610319600480360381019061031491906123a0565b610c36565b005b61033560048036038101906103309190612526565b610c98565b60405161034291906128a0565b60405180910390f35b610365600480360381019061036091906124e5565b610ed0565b005b610381600480360381019061037c9190612315565b610fb5565b60405161038e9190612885565b60405180910390f35b6103b160048036038101906103ac9190612457565b611049565b6040516103c093929190612add565b60405180910390f35b6103e360048036038101906103de91906122ec565b611118565b005b60007f80ac58cd000000000000000000000000000000000000000000000000000000007bffffffffffffffffffffffffffffffffffffffffffffffffffffffff1916827bffffffffffffffffffffffffffffffffffffffffffffffffffffffff191614806104b057507f5b5e139f000000000000000000000000000000000000000000000000000000007bffffffffffffffffffffffffffffffffffffffffffffffffffffffff1916827bffffffffffffffffffffffffffffffffffffffffffffffffffffffff1916145b806104c057506104bf82611210565b5b9050919050565b6060600080546104d690612d1a565b80601f016020809104026020016040519081016040528092919081815260200182805461050290612d1a565b801561054f5780601f106105245761010080835404028352916020019161054f565b820191906000526020600020905b81548152906001019060200180831161053257829003601f168201915b5050505050905090565b60006105648261127a565b6105a3576040517f08c379a000000000000000000000000000000000000000000000000000000000815260040161059a90612a22565b60405180910390fd5b6004600083815260200190815260200160002060009054906101000a900473ffffffffffffffffffffffffffffffffffffffff169050919050565b60006105e982610801565b90508073ffffffffffffffffffffffffffffffffffffffff168373ffffffffffffffffffffffffffffffffffffffff16141561065a576040517f08c379a000000000000000000000000000000000000000000000000000000000815260040161065190612a82565b60405180910390fd5b8073ffffffffffffffffffffffffffffffffffffffff166106796112e6565b73ffffffffffffffffffffffffffffffffffffffff1614806106a857506106a7816106a26112e6565b610fb5565b5b6106e7576040517f08c379a00000000000000000000000000000000000000000000000000000000081526004016106de90612982565b60405180910390fd5b6106f183836112ee565b505050565b6107076107016112e6565b826113a7565b610746576040517f08c379a000000000000000000000000000000000000000000000000000000000815260040161073d90612aa2565b60405180910390fd5b610751838383611485565b505050565b61077183838360405180602001604052806000815250610c36565b505050565b61077f81610801565b73ffffffffffffffffffffffffffffffffffffffff163373ffffffffffffffffffffffffffffffffffffffff16146107ec576040517f08c379a00000000000000000000000000000000000000000000000000000000081526004016107e3906129e2565b60405180910390fd5b6107f5816116e1565b6107fe816117f2565b50565b6000806002600084815260200190815260200160002060009054906101000a900473ffffffffffffffffffffffffffffffffffffffff169050600073ffffffffffffffffffffffffffffffffffffffff168173ffffffffffffffffffffffffffffffffffffffff1614156108aa576040517f08c379a00000000000000000000000000000000000000000000000000000000081526004016108a1906129c2565b60405180910390fd5b80915050919050565b60008073ffffffffffffffffffffffffffffffffffffffff168273ffffffffffffffffffffffffffffffffffffffff161415610924576040517f08c379a000000000000000000000000000000000000000000000000000000000815260040161091b906129a2565b60405180910390fd5b600360008373ffffffffffffffffffffffffffffffffffffffff1673ffffffffffffffffffffffffffffffffffffffff168152602001908152602001600020549050919050565b6109736112e6565b73ffffffffffffffffffffffffffffffffffffffff166109916109f3565b73ffffffffffffffffffffffffffffffffffffffff16146109e7576040517f08c379a00000000000000000000000000000000000000000000000000000000081526004016109de90612a42565b60405180910390fd5b6109f16000611b2b565b565b6000600660009054906101000a900473ffffffffffffffffffffffffffffffffffffffff16905090565b606060018054610a2c90612d1a565b80601f0160208091040260200160405190810160405280929190818152602001828054610a5890612d1a565b8015610aa55780601f10610a7a57610100808354040283529160200191610aa5565b820191906000526020600020905b815481529060010190602001808311610a8857829003601f168201915b5050505050905090565b610ab76112e6565b73ffffffffffffffffffffffffffffffffffffffff168273ffffffffffffffffffffffffffffffffffffffff161415610b25576040517f08c379a0000000000000000000000000000000000000000000000000000000008152600401610b1c90612942565b60405180910390fd5b8060056000610b326112e6565b73ffffffffffffffffffffffffffffffffffffffff1673ffffffffffffffffffffffffffffffffffffffff16815260200190815260200160002060008473ffffffffffffffffffffffffffffffffffffffff1673ffffffffffffffffffffffffffffffffffffffff16815260200190815260200160002060006101000a81548160ff0219169083151502179055508173ffffffffffffffffffffffffffffffffffffffff16610bdf6112e6565b73ffffffffffffffffffffffffffffffffffffffff167f17307eab39ab6107e8899845ad3d59bd9653f200f220920489ca2b5937696c3183604051610c249190612885565b60405180910390a35050565b60075481565b610c47610c416112e6565b836113a7565b610c86576040517f08c379a0000000000000000000000000000000000000000000000000000000008152600401610c7d90612aa2565b60405180910390fd5b610c9284848484611bf1565b50505050565b60606000600860003373ffffffffffffffffffffffffffffffffffffffff1673ffffffffffffffffffffffffffffffffffffffff16815260200190815260200160002080549050905060008111610cee57600080fd5b60005b81811015610eb65783600860003373ffffffffffffffffffffffffffffffffffffffff1673ffffffffffffffffffffffffffffffffffffffff1681526020019081526020016000208281548110610d71577f4e487b7100000000000000000000000000000000000000000000000000000000600052603260045260246000fd5b9060005260206000209060030201600101541415610ea357600860003373ffffffffffffffffffffffffffffffffffffffff1673ffffffffffffffffffffffffffffffffffffffff1681526020019081526020016000208181548110610e00577f4e487b7100000000000000000000000000000000000000000000000000000000600052603260045260246000fd5b90600052602060002090600302016002018054610e1c90612d1a565b80601f0160208091040260200160405190810160405280929190818152602001828054610e4890612d1a565b8015610e955780601f10610e6a57610100808354040283529160200191610e95565b820191906000526020600020905b815481529060010190602001808311610e7857829003601f168201915b505050505092505050610ecb565b8080610eae90612d7d565b915050610cf1565b50604051806020016040528060008152509150505b919050565b600060405180606001604052804281526020016007548152602001838152509050610efd33600754611c4d565b600860003373ffffffffffffffffffffffffffffffffffffffff1673ffffffffffffffffffffffffffffffffffffffff16815260200190815260200160002081908060018154018082558091505060019003906000526020600020906003020160009091909190915060008201518160000155602082015181600101556040820151816002019080519060200190610f96929190612043565b50505060076000815480929190610fac90612d7d565b91905055505050565b6000600560008473ffffffffffffffffffffffffffffffffffffffff1673ffffffffffffffffffffffffffffffffffffffff16815260200190815260200160002060008373ffffffffffffffffffffffffffffffffffffffff1673ffffffffffffffffffffffffffffffffffffffff16815260200190815260200160002060009054906101000a900460ff16905092915050565b6008602052816000526040600020818154811061106557600080fd5b90600052602060002090600302016000915091505080600001549080600101549080600201805461109590612d1a565b80601f01602080910402602001604051908101604052809291908181526020018280546110c190612d1a565b801561110e5780601f106110e35761010080835404028352916020019161110e565b820191906000526020600020905b8154815290600101906020018083116110f157829003601f168201915b5050505050905083565b6111206112e6565b73ffffffffffffffffffffffffffffffffffffffff1661113e6109f3565b73ffffffffffffffffffffffffffffffffffffffff1614611194576040517f08c379a000000000000000000000000000000000000000000000000000000000815260040161118b90612a42565b60405180910390fd5b600073ffffffffffffffffffffffffffffffffffffffff168173ffffffffffffffffffffffffffffffffffffffff161415611204576040517f08c379a00000000000000000000000000000000000000000000000000000000081526004016111fb906128e2565b60405180910390fd5b61120d81611b2b565b50565b60007f01ffc9a7000000000000000000000000000000000000000000000000000000007bffffffffffffffffffffffffffffffffffffffffffffffffffffffff1916827bffffffffffffffffffffffffffffffffffffffffffffffffffffffff1916149050919050565b60008073ffffffffffffffffffffffffffffffffffffffff166002600084815260200190815260200160002060009054906101000a900473ffffffffffffffffffffffffffffffffffffffff1673ffffffffffffffffffffffffffffffffffffffff1614159050919050565b600033905090565b816004600083815260200190815260200160002060006101000a81548173ffffffffffffffffffffffffffffffffffffffff021916908373ffffffffffffffffffffffffffffffffffffffff160217905550808273ffffffffffffffffffffffffffffffffffffffff1661136183610801565b73ffffffffffffffffffffffffffffffffffffffff167f8c5be1e5ebec7d5bd14f71427d1e84f3dd0314c0f7b2291e5b200ac8c7c3b92560405160405180910390a45050565b60006113b28261127a565b6113f1576040517f08c379a00000000000000000000000000000000000000000000000000000000081526004016113e890612962565b60405180910390fd5b60006113fc83610801565b90508073ffffffffffffffffffffffffffffffffffffffff168473ffffffffffffffffffffffffffffffffffffffff16148061146b57508373ffffffffffffffffffffffffffffffffffffffff1661145384610559565b73ffffffffffffffffffffffffffffffffffffffff16145b8061147c575061147b8185610fb5565b5b91505092915050565b8273ffffffffffffffffffffffffffffffffffffffff166114a582610801565b73ffffffffffffffffffffffffffffffffffffffff16146114fb576040517f08c379a00000000000000000000000000000000000000000000000000000000081526004016114f290612a62565b60405180910390fd5b600073ffffffffffffffffffffffffffffffffffffffff168273ffffffffffffffffffffffffffffffffffffffff16141561156b576040517f08c379a000000000000000000000000000000000000000000000000000000000815260040161156290612922565b60405180910390fd5b611576838383611c6b565b6115816000826112ee565b6001600360008573ffffffffffffffffffffffffffffffffffffffff1673ffffffffffffffffffffffffffffffffffffffff16815260200190815260200160002060008282546115d19190612c30565b925050819055506001600360008473ffffffffffffffffffffffffffffffffffffffff1673ffffffffffffffffffffffffffffffffffffffff16815260200190815260200160002060008282546116289190612bda565b92505081905550816002600083815260200190815260200160002060006101000a81548173ffffffffffffffffffffffffffffffffffffffff021916908373ffffffffffffffffffffffffffffffffffffffff160217905550808273ffffffffffffffffffffffffffffffffffffffff168473ffffffffffffffffffffffffffffffffffffffff167fddf252ad1be2c89b69c2b068fc378daa952ba7f163c4a11628f55a4df523b3ef60405160405180910390a4505050565b60006116ec82610801565b90506116fa81600084611c6b565b6117056000836112ee565b6001600360008373ffffffffffffffffffffffffffffffffffffffff1673ffffffffffffffffffffffffffffffffffffffff16815260200190815260200160002060008282546117559190612c30565b925050819055506002600083815260200190815260200160002060006101000a81549073ffffffffffffffffffffffffffffffffffffffff021916905581600073ffffffffffffffffffffffffffffffffffffffff168273ffffffffffffffffffffffffffffffffffffffff167fddf252ad1be2c89b69c2b068fc378daa952ba7f163c4a11628f55a4df523b3ef60405160405180910390a45050565b6000600860003373ffffffffffffffffffffffffffffffffffffffff1673ffffffffffffffffffffffffffffffffffffffff1681526020019081526020016000208054905090506000600860003373ffffffffffffffffffffffffffffffffffffffff1673ffffffffffffffffffffffffffffffffffffffff16815260200190815260200160002090506000821161188957600080fd5b60005b82811015611b255783600860003373ffffffffffffffffffffffffffffffffffffffff1673ffffffffffffffffffffffffffffffffffffffff168152602001908152602001600020828154811061190c577f4e487b7100000000000000000000000000000000000000000000000000000000600052603260045260246000fd5b9060005260206000209060030201600101541415611b1257600860003373ffffffffffffffffffffffffffffffffffffffff1673ffffffffffffffffffffffffffffffffffffffff168152602001908152602001600020818154811061199b577f4e487b7100000000000000000000000000000000000000000000000000000000600052603260045260246000fd5b906000526020600020906003020160008082016000905560018201600090556002820160006119ca91906120c9565b505081600183805490506119de9190612c30565b81548110611a15577f4e487b7100000000000000000000000000000000000000000000000000000000600052603260045260246000fd5b9060005260206000209060030201828281548110611a5c577f4e487b7100000000000000000000000000000000000000000000000000000000600052603260045260246000fd5b906000526020600020906003020160008201548160000155600182015481600101556002820181600201908054611a9290612d1a565b611a9d929190612109565b5090505081805480611ad8577f4e487b7100000000000000000000000000000000000000000000000000000000600052603160045260246000fd5b60019003818190600052602060002090600302016000808201600090556001820160009055600282016000611b0d91906120c9565b505090555b8080611b1d90612d7d565b91505061188c565b50505050565b6000600660009054906101000a900473ffffffffffffffffffffffffffffffffffffffff16905081600660006101000a81548173ffffffffffffffffffffffffffffffffffffffff021916908373ffffffffffffffffffffffffffffffffffffffff1602179055508173ffffffffffffffffffffffffffffffffffffffff168173ffffffffffffffffffffffffffffffffffffffff167f8be0079c531659141344cd1fd0a4f28419497f9722a3daafe3b4186f6b6457e060405160405180910390a35050565b611bfc848484611485565b611c0884848484611c70565b611c47576040517f08c379a0000000000000000000000000000000000000000000000000000000008152600401611c3e906128c2565b60405180910390fd5b50505050565b611c67828260405180602001604052806000815250611e07565b5050565b505050565b6000611c918473ffffffffffffffffffffffffffffffffffffffff16611e62565b15611dfa578373ffffffffffffffffffffffffffffffffffffffff1663150b7a02611cba6112e6565b8786866040518563ffffffff1660e01b8152600401611cdc9493929190612839565b602060405180830381600087803b158015611cf657600080fd5b505af1925050508015611d2757506040513d601f19601f82011682018060405250810190611d2491906124bc565b60015b611daa573d8060008114611d57576040519150601f19603f3d011682016040523d82523d6000602084013e611d5c565b606091505b50600081511415611da2576040517f08c379a0000000000000000000000000000000000000000000000000000000008152600401611d99906128c2565b60405180910390fd5b805181602001fd5b63150b7a0260e01b7bffffffffffffffffffffffffffffffffffffffffffffffffffffffff1916817bffffffffffffffffffffffffffffffffffffffffffffffffffffffff191614915050611dff565b600190505b949350505050565b611e118383611e75565b611e1e6000848484611c70565b611e5d576040517f08c379a0000000000000000000000000000000000000000000000000000000008152600401611e54906128c2565b60405180910390fd5b505050565b600080823b905060008111915050919050565b600073ffffffffffffffffffffffffffffffffffffffff168273ffffffffffffffffffffffffffffffffffffffff161415611ee5576040517f08c379a0000000000000000000000000000000000000000000000000000000008152600401611edc90612a02565b60405180910390fd5b611eee8161127a565b15611f2e576040517f08c379a0000000000000000000000000000000000000000000000000000000008152600401611f2590612902565b60405180910390fd5b611f3a60008383611c6b565b6001600360008473ffffffffffffffffffffffffffffffffffffffff1673ffffffffffffffffffffffffffffffffffffffff1681526020019081526020016000206000828254611f8a9190612bda565b92505081905550816002600083815260200190815260200160002060006101000a81548173ffffffffffffffffffffffffffffffffffffffff021916908373ffffffffffffffffffffffffffffffffffffffff160217905550808273ffffffffffffffffffffffffffffffffffffffff16600073ffffffffffffffffffffffffffffffffffffffff167fddf252ad1be2c89b69c2b068fc378daa952ba7f163c4a11628f55a4df523b3ef60405160405180910390a45050565b82805461204f90612d1a565b90600052602060002090601f01602090048101928261207157600085556120b8565b82601f1061208a57805160ff19168380011785556120b8565b828001600101855582156120b8579182015b828111156120b757825182559160200191906001019061209c565b5b5090506120c59190612196565b5090565b5080546120d590612d1a565b6000825580601f106120e75750612106565b601f0160209004906000526020600020908101906121059190612196565b5b50565b82805461211590612d1a565b90600052602060002090601f0160209004810192826121375760008555612185565b82601f106121485780548555612185565b8280016001018555821561218557600052602060002091601f016020900482015b82811115612184578254825591600101919060010190612169565b5b5090506121929190612196565b5090565b5b808211156121af576000816000905550600101612197565b5090565b60006121c66121c184612b40565b612b1b565b9050828152602081018484840111156121de57600080fd5b6121e9848285612cd8565b509392505050565b60006122046121ff84612b71565b612b1b565b90508281526020810184848401111561221c57600080fd5b612227848285612cd8565b509392505050565b60008135905061223e816132bc565b92915050565b600081359050612253816132d3565b92915050565b600081359050612268816132ea565b92915050565b60008151905061227d816132ea565b92915050565b600082601f83011261229457600080fd5b81356122a48482602086016121b3565b91505092915050565b600082601f8301126122be57600080fd5b81356122ce8482602086016121f1565b91505092915050565b6000813590506122e681613301565b92915050565b6000602082840312156122fe57600080fd5b600061230c8482850161222f565b91505092915050565b6000806040838503121561232857600080fd5b60006123368582860161222f565b92505060206123478582860161222f565b9150509250929050565b60008060006060848603121561236657600080fd5b60006123748682870161222f565b93505060206123858682870161222f565b9250506040612396868287016122d7565b9150509250925092565b600080600080608085870312156123b657600080fd5b60006123c48782880161222f565b94505060206123d58782880161222f565b93505060406123e6878288016122d7565b925050606085013567ffffffffffffffff81111561240357600080fd5b61240f87828801612283565b91505092959194509250565b6000806040838503121561242e57600080fd5b600061243c8582860161222f565b925050602061244d85828601612244565b9150509250929050565b6000806040838503121561246a57600080fd5b60006124788582860161222f565b9250506020612489858286016122d7565b9150509250929050565b6000602082840312156124a557600080fd5b60006124b384828501612259565b91505092915050565b6000602082840312156124ce57600080fd5b60006124dc8482850161226e565b91505092915050565b6000602082840312156124f757600080fd5b600082013567ffffffffffffffff81111561251157600080fd5b61251d848285016122ad565b91505092915050565b60006020828403121561253857600080fd5b6000612546848285016122d7565b91505092915050565b61255881612c64565b82525050565b61256781612c76565b82525050565b600061257882612ba2565b6125828185612bb8565b9350612592818560208601612ce7565b61259b81612e53565b840191505092915050565b60006125b182612bad565b6125bb8185612bc9565b93506125cb818560208601612ce7565b6125d481612e53565b840191505092915050565b60006125ec603283612bc9565b91506125f782612e64565b604082019050919050565b600061260f602683612bc9565b915061261a82612eb3565b604082019050919050565b6000612632601c83612bc9565b915061263d82612f02565b602082019050919050565b6000612655602483612bc9565b915061266082612f2b565b604082019050919050565b6000612678601983612bc9565b915061268382612f7a565b602082019050919050565b600061269b602c83612bc9565b91506126a682612fa3565b604082019050919050565b60006126be603883612bc9565b91506126c982612ff2565b604082019050919050565b60006126e1602a83612bc9565b91506126ec82613041565b604082019050919050565b6000612704602983612bc9565b915061270f82613090565b604082019050919050565b6000612727602583612bc9565b9150612732826130df565b604082019050919050565b600061274a602083612bc9565b91506127558261312e565b602082019050919050565b600061276d602c83612bc9565b915061277882613157565b604082019050919050565b6000612790602083612bc9565b915061279b826131a6565b602082019050919050565b60006127b3602983612bc9565b91506127be826131cf565b604082019050919050565b60006127d6602183612bc9565b91506127e18261321e565b604082019050919050565b60006127f9603183612bc9565b91506128048261326d565b604082019050919050565b61281881612cce565b82525050565b6000602082019050612833600083018461254f565b92915050565b600060808201905061284e600083018761254f565b61285b602083018661254f565b612868604083018561280f565b818103606083015261287a818461256d565b905095945050505050565b600060208201905061289a600083018461255e565b92915050565b600060208201905081810360008301526128ba81846125a6565b905092915050565b600060208201905081810360008301526128db816125df565b9050919050565b600060208201905081810360008301526128fb81612602565b9050919050565b6000602082019050818103600083015261291b81612625565b9050919050565b6000602082019050818103600083015261293b81612648565b9050919050565b6000602082019050818103600083015261295b8161266b565b9050919050565b6000602082019050818103600083015261297b8161268e565b9050919050565b6000602082019050818103600083015261299b816126b1565b9050919050565b600060208201905081810360008301526129bb816126d4565b9050919050565b600060208201905081810360008301526129db816126f7565b9050919050565b600060208201905081810360008301526129fb8161271a565b9050919050565b60006020820190508181036000830152612a1b8161273d565b9050919050565b60006020820190508181036000830152612a3b81612760565b9050919050565b60006020820190508181036000830152612a5b81612783565b9050919050565b60006020820190508181036000830152612a7b816127a6565b9050919050565b60006020820190508181036000830152612a9b816127c9565b9050919050565b60006020820190508181036000830152612abb816127ec565b9050919050565b6000602082019050612ad7600083018461280f565b92915050565b6000606082019050612af2600083018661280f565b612aff602083018561280f565b8181036040830152612b1181846125a6565b9050949350505050565b6000612b25612b36565b9050612b318282612d4c565b919050565b6000604051905090565b600067ffffffffffffffff821115612b5b57612b5a612e24565b5b612b6482612e53565b9050602081019050919050565b600067ffffffffffffffff821115612b8c57612b8b612e24565b5b612b9582612e53565b9050602081019050919050565b600081519050919050565b600081519050919050565b600082825260208201905092915050565b600082825260208201905092915050565b6000612be582612cce565b9150612bf083612cce565b9250827fffffffffffffffffffffffffffffffffffffffffffffffffffffffffffffffff03821115612c2557612c24612dc6565b5b828201905092915050565b6000612c3b82612cce565b9150612c4683612cce565b925082821015612c5957612c58612dc6565b5b828203905092915050565b6000612c6f82612cae565b9050919050565b60008115159050919050565b60007fffffffff0000000000000000000000000000000000000000000000000000000082169050919050565b600073ffffffffffffffffffffffffffffffffffffffff82169050919050565b6000819050919050565b82818337600083830152505050565b60005b83811015612d05578082015181840152602081019050612cea565b83811115612d14576000848401525b50505050565b60006002820490506001821680612d3257607f821691505b60208210811415612d4657612d45612df5565b5b50919050565b612d5582612e53565b810181811067ffffffffffffffff82111715612d7457612d73612e24565b5b80604052505050565b6000612d8882612cce565b91507fffffffffffffffffffffffffffffffffffffffffffffffffffffffffffffffff821415612dbb57612dba612dc6565b5b600182019050919050565b7f4e487b7100000000000000000000000000000000000000000000000000000000600052601160045260246000fd5b7f4e487b7100000000000000000000000000000000000000000000000000000000600052602260045260246000fd5b7f4e487b7100000000000000000000000000000000000000000000000000000000600052604160045260246000fd5b6000601f19601f8301169050919050565b7f4552433732313a207472616e7366657220746f206e6f6e20455243373231526560008201527f63656976657220696d706c656d656e7465720000000000000000000000000000602082015250565b7f4f776e61626c653a206e6577206f776e657220697320746865207a65726f206160008201527f6464726573730000000000000000000000000000000000000000000000000000602082015250565b7f4552433732313a20746f6b656e20616c7265616479206d696e74656400000000600082015250565b7f4552433732313a207472616e7366657220746f20746865207a65726f2061646460008201527f7265737300000000000000000000000000000000000000000000000000000000602082015250565b7f4552433732313a20617070726f766520746f2063616c6c657200000000000000600082015250565b7f4552433732313a206f70657261746f7220717565727920666f72206e6f6e657860008201527f697374656e7420746f6b656e0000000000000000000000000000000000000000602082015250565b7f4552433732313a20617070726f76652063616c6c6572206973206e6f74206f7760008201527f6e6572206e6f7220617070726f76656420666f7220616c6c0000000000000000602082015250565b7f4552433732313a2062616c616e636520717565727920666f7220746865207a6560008201527f726f206164647265737300000000000000000000000000000000000000000000602082015250565b7f4552433732313a206f776e657220717565727920666f72206e6f6e657869737460008201527f656e7420746f6b656e0000000000000000000000000000000000000000000000602082015250565b7f596f752063616e206e6f74206275726e20736f6d656f6e6520656c736527732060008201527f746f6b656e000000000000000000000000000000000000000000000000000000602082015250565b7f4552433732313a206d696e7420746f20746865207a65726f2061646472657373600082015250565b7f4552433732313a20617070726f76656420717565727920666f72206e6f6e657860008201527f697374656e7420746f6b656e0000000000000000000000000000000000000000602082015250565b7f4f776e61626c653a2063616c6c6572206973206e6f7420746865206f776e6572600082015250565b7f4552433732313a207472616e73666572206f6620746f6b656e2074686174206960008201527f73206e6f74206f776e0000000000000000000000000000000000000000000000602082015250565b7f4552433732313a20617070726f76616c20746f2063757272656e74206f776e6560008201527f7200000000000000000000000000000000000000000000000000000000000000602082015250565b7f4552433732313a207472616e736665722063616c6c6572206973206e6f74206f60008201527f776e6572206e6f7220617070726f766564000000000000000000000000000000602082015250565b6132c581612c64565b81146132d057600080fd5b50565b6132dc81612c76565b81146132e757600080fd5b50565b6132f381612c82565b81146132fe57600080fd5b50565b61330a81612cce565b811461331557600080fd5b5056fea2646970667358221220ac5556a011d81151a5c8fa98d363c02368f62a100fda0740eda4a6ccd70b361f64736f6c63430008040033",
  "linkReferences": {},
  "deployedLinkReferences": {}
}